{
  "contractName": "Story",
  "abi": [
    {
      "constant": true,
      "inputs": [],
      "name": "lineselected",
      "outputs": [
        {
          "name": "",
          "type": "string"
        }
      ],
      "payable": false,
      "stateMutability": "view",
      "type": "function"
    },
    {
      "constant": true,
      "inputs": [
        {
          "name": "",
          "type": "uint256"
        }
      ],
      "name": "finalStory",
      "outputs": [
        {
          "name": "",
          "type": "string"
        }
      ],
      "payable": false,
      "stateMutability": "view",
      "type": "function"
    },
    {
      "constant": true,
      "inputs": [],
      "name": "Round",
      "outputs": [
        {
          "name": "",
          "type": "uint256"
        }
      ],
      "payable": false,
      "stateMutability": "view",
      "type": "function"
    },
    {
      "constant": true,
      "inputs": [],
      "name": "start",
      "outputs": [
        {
          "name": "",
          "type": "uint256"
        }
      ],
      "payable": false,
      "stateMutability": "view",
      "type": "function"
    },
    {
      "constant": true,
      "inputs": [
        {
          "name": "",
          "type": "uint256"
        }
      ],
      "name": "arrayOfLines",
      "outputs": [
        {
          "name": "line",
          "type": "string"
        },
        {
          "name": "voteCount",
          "type": "uint256"
        }
      ],
      "payable": false,
      "stateMutability": "view",
      "type": "function"
    },
    {
      "constant": true,
      "inputs": [],
      "name": "lineCount",
      "outputs": [
        {
          "name": "",
          "type": "uint256"
        }
      ],
      "payable": false,
      "stateMutability": "view",
      "type": "function"
    },
    {
      "inputs": [],
      "payable": false,
      "stateMutability": "nonpayable",
      "type": "constructor"
    },
    {
      "constant": false,
      "inputs": [],
      "name": "incrementRound",
      "outputs": [],
      "payable": false,
      "stateMutability": "nonpayable",
      "type": "function"
    },
    {
      "constant": false,
      "inputs": [
        {
          "name": "idx",
          "type": "uint256"
        }
      ],
      "name": "casteVote",
      "outputs": [],
      "payable": false,
      "stateMutability": "nonpayable",
      "type": "function"
    },
    {
      "constant": false,
      "inputs": [],
      "name": "addStoryLine",
      "outputs": [],
      "payable": false,
      "stateMutability": "nonpayable",
      "type": "function"
    },
    {
      "constant": false,
      "inputs": [
        {
          "name": "_newExtension",
          "type": "string"
        }
      ],
      "name": "addNew",
      "outputs": [],
      "payable": false,
      "stateMutability": "nonpayable",
      "type": "function"
    }
  ],
  "bytecode": "0x60806040526000607a5534801561001557600080fd5b5042607c819055506000608081905550610b5d806100346000396000f3006080604052600436106100a4576000357c0100000000000000000000000000000000000000000000000000000000900463ffffffff168063124eef9a146100a9578063465c647114610139578063685940f8146101df5780636ac302051461020c578063916df92a14610275578063be9a6555146102a0578063d4b9c3c2146102cb578063e1d5a2c814610378578063fb6872161461038f578063fd3615c9146103a6575b600080fd5b3480156100b557600080fd5b506100be6103d1565b6040518080602001828103825283818151815260200191508051906020019080838360005b838110156100fe5780820151818401526020810190506100e3565b50505050905090810190601f16801561012b5780820380516001836020036101000a031916815260200191505b509250505060405180910390f35b34801561014557600080fd5b506101646004803603810190808035906020019092919050505061046f565b6040518080602001828103825283818151815260200191508051906020019080838360005b838110156101a4578082015181840152602081019050610189565b50505050905090810190601f1680156101d15780820380516001836020036101000a031916815260200191505b509250505060405180910390f35b3480156101eb57600080fd5b5061020a60048036038101908080359060200190929190505050610521565b005b34801561021857600080fd5b50610273600480360381019080803590602001908201803590602001908080601f01602080910402602001604051908101604052809392919081815260200183838082843782019150505050505091929192905050506106e2565b005b34801561028157600080fd5b5061028a6107cc565b6040518082815260200191505060405180910390f35b3480156102ac57600080fd5b506102b56107d2565b6040518082815260200191505060405180910390f35b3480156102d757600080fd5b506102f6600480360381019080803590602001909291905050506107d8565b6040518080602001838152602001828103825284818151815260200191508051906020019080838360005b8381101561033c578082015181840152602081019050610321565b50505050905090810190601f1680156103695780820380516001836020036101000a031916815260200191505b50935050505060405180910390f35b34801561038457600080fd5b5061038d610899565b005b34801561039b57600080fd5b506103a46108ad565b005b3480156103b257600080fd5b506103bb6109ff565b6040518082815260200191505060405180910390f35b607b8054600181600116156101000203166002900480601f0160208091040260200160405190810160405280929190818152602001828054600181600116156101000203166002900480156104675780601f1061043c57610100808354040283529160200191610467565b820191906000526020600020905b81548152906001019060200180831161044a57829003601f168201915b505050505081565b60168160648110151561047e57fe5b016000915090508054600181600116156101000203166002900480601f0160208091040260200160405190810160405280929190818152602001828054600181600116156101000203166002900480156105195780601f106104ee57610100808354040283529160200191610519565b820191906000526020600020905b8154815290600101906020018083116104fc57829003601f168201915b505050505081565b60008090505b607d60003373ffffffffffffffffffffffffffffffffffffffff1673ffffffffffffffffffffffffffffffffffffffff1681526020019081526020016000208054905081101561064e57608054607d60003373ffffffffffffffffffffffffffffffffffffffff1673ffffffffffffffffffffffffffffffffffffffff168152602001908152602001600020828154811015156105c057fe5b906000526020600020015414151515610641576040517f08c379a000000000000000000000000000000000000000000000000000000000815260040180806020018281038252601b8152602001807f416c726561647920766f74656420696e207468697320726f756e64000000000081525060200191505060405180910390fd5b8080600101915050610527565b607d60003373ffffffffffffffffffffffffffffffffffffffff1673ffffffffffffffffffffffffffffffffffffffff16815260200190815260200160002060805490806001815401808255809150509060018203906000526020600020016000909192909190915055506001600083600b811015156106ca57fe5b60020201600101600082825401925050819055505050565b607e60006080548152602001908152602001600020819080600181540180825580915050906001820390600052602060002001600090919290919091509080519060200190610732929190610a05565b5050806000607f6000608054815260200190815260200160002054600b8110151561075957fe5b600202016000019080519060200190610773929190610a05565b50600080607f6000608054815260200190815260200160002054600b8110151561079957fe5b6002020160010181905550607f600060805481526020019081526020016000206000815480929190600101919050555050565b60805481565b607c5481565b600081600b811015156107e757fe5b60020201600091509050806000018054600181600116156101000203166002900480601f0160208091040260200160405190810160405280929190818152602001828054600181600116156101000203166002900480156108895780601f1061085e57610100808354040283529160200191610889565b820191906000526020600020905b81548152906001019060200180831161086c57829003601f168201915b5050505050908060010154905082565b608060008154809291906001019190505550565b600080600080925060009150600090505b607f600060805481526020019081526020016000205481101561095e57600083600b811015156108ea57fe5b6002020160010154600082600b8110151561090157fe5b60020201600101541115610913578092505b60008084600b8110151561092357fe5b6002020160010154111561093657600191505b60008082600b8110151561094657fe5b600202016001018190555080806001019150506108be565b60018214156109fa57600083600b8110151561097657fe5b600202016000016016607a5460648110151561098e57fe5b0190805460018160011615610100020316600290046109ae929190610a85565b50607a60008154809291906001019190505550600083600b811015156109d057fe5b60020201600001607b90805460018160011615610100020316600290046109f8929190610a85565b505b505050565b607a5481565b828054600181600116156101000203166002900490600052602060002090601f016020900481019282601f10610a4657805160ff1916838001178555610a74565b82800160010185558215610a74579182015b82811115610a73578251825591602001919060010190610a58565b5b509050610a819190610b0c565b5090565b828054600181600116156101000203166002900490600052602060002090601f016020900481019282601f10610abe5780548555610afb565b82800160010185558215610afb57600052602060002091601f016020900482015b82811115610afa578254825591600101919060010190610adf565b5b509050610b089190610b0c565b5090565b610b2e91905b80821115610b2a576000816000905550600101610b12565b5090565b905600a165627a7a72305820b007b11bc2e975b71ab59e8a96697180ab2112a8859c1c65985396b72e190b470029",
  "source": "pragma solidity ^0.4.2;\n\ncontract Story {\n\n    \n    struct storyLine\n    {\n        string line;\n        uint voteCount;\n    }\n    \n    storyLine[11] public arrayOfLines; // keep track of status of lines in each round\n    string[100]public  finalStory;     // final lines in story\n    uint public lineCount = 0;         // final story line count\n    string public lineselected;\n    uint public start; \n    mapping( address => uint[]) votedInThisRound;\n    mapping(uint => string[]) suggestedThisRound;\n    mapping(uint => uint) numberOfSuggestions;\n    uint public Round;\n \n\n    // Constructor\n    constructor() public\n    {\n        // arrayOfLines[0].line = \"Line 0 \"; \n        // arrayOfLines[0].voteCount = 0;\n        // arrayOfLines[1].line = \"Line 1 \"; \n        // arrayOfLines[1].voteCount = 0; \n        // arrayOfLines[2].line = \"Line 2 \"; \n        // arrayOfLines[2].voteCount = 0;\n        // arrayOfLines[3].line = \"Line 3 \"; \n        // arrayOfLines[3].voteCount = 0;\n        // arrayOfLines[4].line = \"Line 4 \"; \n        // arrayOfLines[4].voteCount = 0;\n        start = now ;\n        Round = 0;\n    }\n\n    // modifier notVoted()\n    // {\n    //     require( votedInThisRound[msg.sender]<1 , \" Already proposed line \");\n    // }\n\n    function incrementRound()\n    public\n    {\n        Round++;\n    }\n\n    function casteVote(uint idx) \n    public\n    \n    {\n        // require(votedInThisRound[msg.sender] < 1,\" Already proposed line \");\n        // uint Round = (uint)((now - start)/roundTimer);\n        for (uint i = 0;i<votedInThisRound[msg.sender].length;i++) {\n            require(votedInThisRound[msg.sender][i] != Round, \"Already voted in this round\");\n        }\n        votedInThisRound[msg.sender].push(Round);\n        arrayOfLines[idx].voteCount += 1;\n    }\n\n    function addStoryLine() // add line to story and reset count to zero\n    public\n    {\n        // uint Round = (uint)((now - start)/roundTimer);\n        uint roundPropose = 0;\n        uint flag = 0;\n        for (uint i = 0;i<numberOfSuggestions[Round];i++)\n        {\n            if(arrayOfLines[i].voteCount > arrayOfLines[roundPropose].voteCount)\n            {\n                roundPropose = i;\n            }\n            if(arrayOfLines[roundPropose].voteCount > 0){\n                flag = 1;\n            }\n            arrayOfLines[i].voteCount = 0;\n        }\n        if(flag==1){\n            finalStory[lineCount] = arrayOfLines[roundPropose].line;\n            lineCount ++;\n            lineselected = arrayOfLines[roundPropose].line;   \n        }\n    }\n\n    function addNew(string _newExtension) \n    public\n    {\n        // uint Round = (uint)((now - start)/roundTimer);\n        suggestedThisRound[Round].push(_newExtension);\n        arrayOfLines[numberOfSuggestions[Round]].line = _newExtension;\n        arrayOfLines[numberOfSuggestions[Round]].voteCount = 0;\n        numberOfSuggestions[Round]++;\n    }\n\n}\n",
  "sourcePath": "/home/dungeonmaster/Desktop/StoryBuildingDapp/StoryDapp/contracts/Story.sol",
  "compiler": {
    "name": "solc",
    "version": "0.4.24+commit.e67f0147.Emscripten.clang"
  },
  "schemaVersion": "2.0.1",
  "updatedAt": "2018-11-13T11:43:56.980Z"
}