{
  "contractName": "Story",
  "abi": [
    {
      "constant": true,
      "inputs": [],
      "name": "lineselected",
      "outputs": [
        {
          "name": "",
          "type": "string"
        }
      ],
      "payable": false,
      "stateMutability": "view",
      "type": "function"
    },
    {
      "constant": true,
      "inputs": [],
      "name": "roundTimer",
      "outputs": [
        {
          "name": "",
          "type": "uint256"
        }
      ],
      "payable": false,
      "stateMutability": "view",
      "type": "function"
    },
    {
      "constant": true,
      "inputs": [
        {
          "name": "",
          "type": "uint256"
        }
      ],
      "name": "finalStory",
      "outputs": [
        {
          "name": "",
          "type": "string"
        }
      ],
      "payable": false,
      "stateMutability": "view",
      "type": "function"
    },
    {
      "constant": true,
      "inputs": [],
      "name": "start",
      "outputs": [
        {
          "name": "",
          "type": "uint256"
        }
      ],
      "payable": false,
      "stateMutability": "view",
      "type": "function"
    },
    {
      "constant": true,
      "inputs": [
        {
          "name": "",
          "type": "uint256"
        }
      ],
      "name": "arrayOfLines",
      "outputs": [
        {
          "name": "line",
          "type": "string"
        },
        {
          "name": "voteCount",
          "type": "uint256"
        }
      ],
      "payable": false,
      "stateMutability": "view",
      "type": "function"
    },
    {
      "constant": true,
      "inputs": [],
      "name": "lineCount",
      "outputs": [
        {
          "name": "",
          "type": "uint256"
        }
      ],
      "payable": false,
      "stateMutability": "view",
      "type": "function"
    },
    {
      "inputs": [],
      "payable": false,
      "stateMutability": "nonpayable",
      "type": "constructor"
    },
    {
      "constant": false,
      "inputs": [
        {
          "name": "idx",
          "type": "uint256"
        }
      ],
      "name": "casteVote",
      "outputs": [],
      "payable": false,
      "stateMutability": "nonpayable",
      "type": "function"
    },
    {
      "constant": false,
      "inputs": [
        {
          "name": "_newExtension",
          "type": "string"
        }
      ],
      "name": "addNew",
      "outputs": [],
      "payable": false,
      "stateMutability": "nonpayable",
      "type": "function"
    }
  ],
  "bytecode": "0x60806040526000607a55620186a060805534801561001c57600080fd5b506000806000600b8110151561002e57fe5b60020201600101819055506000806001600b8110151561004a57fe5b60020201600101819055506000806002600b8110151561006657fe5b60020201600101819055506000806003600b8110151561008257fe5b60020201600101819055506000806004600b8110151561009e57fe5b600202016001018190555042607c81905550610774806100bf6000396000f30060806040526004361061008e576000357c0100000000000000000000000000000000000000000000000000000000900463ffffffff168063124eef9a146100935780633426acc314610123578063465c64711461014e578063685940f8146101f45780636ac3020514610221578063be9a65551461028a578063d4b9c3c2146102b5578063fd3615c914610362575b600080fd5b34801561009f57600080fd5b506100a861038d565b6040518080602001828103825283818151815260200191508051906020019080838360005b838110156100e85780820151818401526020810190506100cd565b50505050905090810190601f1680156101155780820380516001836020036101000a031916815260200191505b509250505060405180910390f35b34801561012f57600080fd5b5061013861042b565b6040518082815260200191505060405180910390f35b34801561015a57600080fd5b5061017960048036038101908080359060200190929190505050610431565b6040518080602001828103825283818151815260200191508051906020019080838360005b838110156101b957808201518184015260208101905061019e565b50505050905090810190601f1680156101e65780820380516001836020036101000a031916815260200191505b509250505060405180910390f35b34801561020057600080fd5b5061021f600480360381019080803590602001909291905050506104e3565b005b34801561022d57600080fd5b50610288600480360381019080803590602001908201803590602001908080601f016020809104026020016040519081016040528093929190818152602001838380828437820191505050505050919291929050505061050b565b005b34801561029657600080fd5b5061029f6105d6565b6040518082815260200191505060405180910390f35b3480156102c157600080fd5b506102e0600480360381019080803590602001909291905050506105dc565b6040518080602001838152602001828103825284818151815260200191508051906020019080838360005b8381101561032657808201518184015260208101905061030b565b50505050905090810190601f1680156103535780820380516001836020036101000a031916815260200191505b50935050505060405180910390f35b34801561036e57600080fd5b5061037761069d565b6040518082815260200191505060405180910390f35b607b8054600181600116156101000203166002900480601f0160208091040260200160405190810160405280929190818152602001828054600181600116156101000203166002900480156104235780601f106103f857610100808354040283529160200191610423565b820191906000526020600020905b81548152906001019060200180831161040657829003601f168201915b505050505081565b60805481565b60168160648110151561044057fe5b016000915090508054600181600116156101000203166002900480601f0160208091040260200160405190810160405280929190818152602001828054600181600116156101000203166002900480156104db5780601f106104b0576101008083540402835291602001916104db565b820191906000526020600020905b8154815290600101906020018083116104be57829003601f168201915b505050505081565b6001600082600b811015156104f457fe5b600202016001016000828254019250508190555050565b6000608054607c54420381151561051e57fe5b049050607e600082815260200190815260200160002082908060018154018082558091505090600182039060005260206000200160009091929091909150908051906020019061056f9291906106a3565b5050816000607f600084815260200190815260200160002054600b8110151561059457fe5b6002020160000190805190602001906105ae9291906106a3565b50607f6000828152602001908152602001600020600081548092919060010191905055505050565b607c5481565b600081600b811015156105eb57fe5b60020201600091509050806000018054600181600116156101000203166002900480601f01602080910402602001604051908101604052809291908181526020018280546001816001161561010002031660029004801561068d5780601f106106625761010080835404028352916020019161068d565b820191906000526020600020905b81548152906001019060200180831161067057829003601f168201915b5050505050908060010154905082565b607a5481565b828054600181600116156101000203166002900490600052602060002090601f016020900481019282601f106106e457805160ff1916838001178555610712565b82800160010185558215610712579182015b828111156107115782518255916020019190600101906106f6565b5b50905061071f9190610723565b5090565b61074591905b80821115610741576000816000905550600101610729565b5090565b905600a165627a7a723058200c94905a2440db66c22aec0acdc14423e1912f8d24f40d49a882ef807a1e46ca0029",
  "source": "pragma solidity ^0.4.2;\n\n\n\ncontract Story {\n\n    \n    struct storyLine\n    {\n        string line;\n        uint voteCount;\n    }\n\n    storyLine[11] public arrayOfLines; // keep track of status of lines in each round\n    string[100]public  finalStory;     // final lines in story\n    uint public lineCount = 0;         // final story line count\n    string public lineselected;\n    uint public start; \n    mapping( address => uint) votedInThisRound;\n    mapping(uint => string[]) suggestedThisRound;\n    mapping(uint => uint) numberOfSuggestions;\n    uint public roundTimer = 100000;\n \n\n    // Constructor\n    constructor() public\n    {\n        // arrayOfLines[0].line = \"Line 0 \"; \n        arrayOfLines[0].voteCount = 0;\n        // arrayOfLines[1].line = \"Line 1 \"; \n        arrayOfLines[1].voteCount = 0; \n        // arrayOfLines[2].line = \"Line 2 \"; \n        arrayOfLines[2].voteCount = 0;\n        // arrayOfLines[3].line = \"Line 3 \"; \n        arrayOfLines[3].voteCount = 0;\n        // arrayOfLines[4].line = \"Line 4 \"; \n        arrayOfLines[4].voteCount = 0;\n        start = now ;\n    }\n\n    modifier notVoted()\n    {\n        require( votedInThisRound[msg.sender]<1 , \" Already proposed line \");_;\n    }\n\n\n    function casteVote(uint idx) public\n    {\n        //votedInThisRound[msg.sender] = 1;\n        arrayOfLines[idx].voteCount += 1;        \t\n        \n    }\n\n    // function addStoryLine() // add line to story and reset count to zero\n    // {\n\n    //     uint roundPropose = 0;\n    //     uint flag = 0;\n    //     for (uint i = 0;i<5;i++)\n    //     {\n    //         if(arrayOfLines[i].voteCount > arrayOfLines[roundPropose].voteCount)\n    //         {\n    //             roundPropose = i;\n    //         }\n    //         if(arrayOfLines[roundPropose].voteCount > 0){\n    //             flag = 1;\n    //         }\n    //         arrayOfLines[i].voteCount = 0;\n    //     }\n    //     if(flag==1){\n    //         finalStory[lineCount] = arrayOfLines[roundPropose].line;\n    //         lineCount ++;\n    //         lineselected = arrayOfLines[roundPropose].line;   \n    //     }\n    // }\n\n    function addNew(string _newExtension) \n    public\n    {\n        uint Round = (now - start)/roundTimer;\n        suggestedThisRound[Round].push(_newExtension);\n        arrayOfLines[numberOfSuggestions[Round]].line = _newExtension;\n        numberOfSuggestions[Round]++;\n    }\n\n}\n",
  "sourcePath": "/home/dungeonmaster/Desktop/blockchain/Dapp/StoryDapp/contracts/Story.sol",
  "compiler": {
    "name": "solc",
    "version": "0.4.24+commit.e67f0147.Emscripten.clang"
  },
  "schemaVersion": "2.0.1",
  "updatedAt": "2018-11-13T08:58:15.575Z"
}