{
  "contractName": "Story",
  "abi": [
    {
      "constant": true,
      "inputs": [],
      "name": "lineselected",
      "outputs": [
        {
          "name": "",
          "type": "string"
        }
      ],
      "payable": false,
      "stateMutability": "view",
      "type": "function"
    },
    {
      "constant": true,
      "inputs": [
        {
          "name": "",
          "type": "uint256"
        }
      ],
      "name": "finalStory",
      "outputs": [
        {
          "name": "",
          "type": "string"
        }
      ],
      "payable": false,
      "stateMutability": "view",
      "type": "function"
    },
    {
      "constant": true,
      "inputs": [],
      "name": "Round",
      "outputs": [
        {
          "name": "",
          "type": "uint256"
        }
      ],
      "payable": false,
      "stateMutability": "view",
      "type": "function"
    },
    {
      "constant": true,
      "inputs": [],
      "name": "start",
      "outputs": [
        {
          "name": "",
          "type": "uint256"
        }
      ],
      "payable": false,
      "stateMutability": "view",
      "type": "function"
    },
    {
      "constant": true,
      "inputs": [
        {
          "name": "",
          "type": "uint256"
        }
      ],
      "name": "arrayOfLines",
      "outputs": [
        {
          "name": "line",
          "type": "string"
        },
        {
          "name": "voteCount",
          "type": "uint256"
        }
      ],
      "payable": false,
      "stateMutability": "view",
      "type": "function"
    },
    {
      "constant": true,
      "inputs": [],
      "name": "lineCount",
      "outputs": [
        {
          "name": "",
          "type": "uint256"
        }
      ],
      "payable": false,
      "stateMutability": "view",
      "type": "function"
    },
    {
      "inputs": [],
      "payable": false,
      "stateMutability": "nonpayable",
      "type": "constructor"
    },
    {
      "constant": false,
      "inputs": [],
      "name": "incrementRound",
      "outputs": [],
      "payable": false,
      "stateMutability": "nonpayable",
      "type": "function"
    },
    {
      "constant": true,
      "inputs": [],
      "name": "lol",
      "outputs": [
        {
          "name": "",
          "type": "uint256"
        }
      ],
      "payable": false,
      "stateMutability": "view",
      "type": "function"
    },
    {
      "constant": false,
      "inputs": [
        {
          "name": "idx",
          "type": "uint256"
        }
      ],
      "name": "casteVote",
      "outputs": [],
      "payable": false,
      "stateMutability": "nonpayable",
      "type": "function"
    },
    {
      "constant": false,
      "inputs": [],
      "name": "addStoryLine",
      "outputs": [],
      "payable": false,
      "stateMutability": "nonpayable",
      "type": "function"
    },
    {
      "constant": false,
      "inputs": [
        {
          "name": "_newExtension",
          "type": "string"
        }
      ],
      "name": "addNew",
      "outputs": [],
      "payable": false,
      "stateMutability": "nonpayable",
      "type": "function"
    }
  ],
  "bytecode": "0x60806040526000607a5534801561001557600080fd5b5042607c819055506000608081905550610bb0806100346000396000f3006080604052600436106100af576000357c0100000000000000000000000000000000000000000000000000000000900463ffffffff168063124eef9a146100b4578063465c647114610144578063685940f8146101ea5780636ac302051461021757806371e2d91914610280578063916df92a146102ab578063be9a6555146102d6578063d4b9c3c214610301578063e1d5a2c8146103ae578063fb687216146103c5578063fd3615c9146103dc575b600080fd5b3480156100c057600080fd5b506100c9610407565b6040518080602001828103825283818151815260200191508051906020019080838360005b838110156101095780820151818401526020810190506100ee565b50505050905090810190601f1680156101365780820380516001836020036101000a031916815260200191505b509250505060405180910390f35b34801561015057600080fd5b5061016f600480360381019080803590602001909291905050506104a5565b6040518080602001828103825283818151815260200191508051906020019080838360005b838110156101af578082015181840152602081019050610194565b50505050905090810190601f1680156101dc5780820380516001836020036101000a031916815260200191505b509250505060405180910390f35b3480156101f657600080fd5b5061021560048036038101908080359060200190929190505050610557565b005b34801561022357600080fd5b5061027e600480360381019080803590602001908201803590602001908080601f0160208091040260200160405190810160405280939291908181526020018383808284378201915050505050509192919290505050610718565b005b34801561028c57600080fd5b50610295610802565b6040518082815260200191505060405180910390f35b3480156102b757600080fd5b506102c061081f565b6040518082815260200191505060405180910390f35b3480156102e257600080fd5b506102eb610825565b6040518082815260200191505060405180910390f35b34801561030d57600080fd5b5061032c6004803603810190808035906020019092919050505061082b565b6040518080602001838152602001828103825284818151815260200191508051906020019080838360005b83811015610372578082015181840152602081019050610357565b50505050905090810190601f16801561039f5780820380516001836020036101000a031916815260200191505b50935050505060405180910390f35b3480156103ba57600080fd5b506103c36108ec565b005b3480156103d157600080fd5b506103da610900565b005b3480156103e857600080fd5b506103f1610a52565b6040518082815260200191505060405180910390f35b607b8054600181600116156101000203166002900480601f01602080910402602001604051908101604052809291908181526020018280546001816001161561010002031660029004801561049d5780601f106104725761010080835404028352916020019161049d565b820191906000526020600020905b81548152906001019060200180831161048057829003601f168201915b505050505081565b6016816064811015156104b457fe5b016000915090508054600181600116156101000203166002900480601f01602080910402602001604051908101604052809291908181526020018280546001816001161561010002031660029004801561054f5780601f106105245761010080835404028352916020019161054f565b820191906000526020600020905b81548152906001019060200180831161053257829003601f168201915b505050505081565b60008090505b607d60003373ffffffffffffffffffffffffffffffffffffffff1673ffffffffffffffffffffffffffffffffffffffff1681526020019081526020016000208054905081101561068457608054607d60003373ffffffffffffffffffffffffffffffffffffffff1673ffffffffffffffffffffffffffffffffffffffff168152602001908152602001600020828154811015156105f657fe5b906000526020600020015414151515610677576040517f08c379a000000000000000000000000000000000000000000000000000000000815260040180806020018281038252601b8152602001807f416c726561647920766f74656420696e207468697320726f756e64000000000081525060200191505060405180910390fd5b808060010191505061055d565b607d60003373ffffffffffffffffffffffffffffffffffffffff1673ffffffffffffffffffffffffffffffffffffffff16815260200190815260200160002060805490806001815401808255809150509060018203906000526020600020016000909192909190915055506001600083600b8110151561070057fe5b60020201600101600082825401925050819055505050565b607e60006080548152602001908152602001600020819080600181540180825580915050906001820390600052602060002001600090919290919091509080519060200190610768929190610a58565b5050806000607f6000608054815260200190815260200160002054600b8110151561078f57fe5b6002020160000190805190602001906107a9929190610a58565b50600080607f6000608054815260200190815260200160002054600b811015156107cf57fe5b6002020160010181905550607f600060805481526020019081526020016000206000815480929190600101919050555050565b6000607f6000608054815260200190815260200160002054905090565b60805481565b607c5481565b600081600b8110151561083a57fe5b60020201600091509050806000018054600181600116156101000203166002900480601f0160208091040260200160405190810160405280929190818152602001828054600181600116156101000203166002900480156108dc5780601f106108b1576101008083540402835291602001916108dc565b820191906000526020600020905b8154815290600101906020018083116108bf57829003601f168201915b5050505050908060010154905082565b608060008154809291906001019190505550565b600080600080925060009150600090505b607f60006080548152602001908152602001600020548110156109b157600083600b8110151561093d57fe5b6002020160010154600082600b8110151561095457fe5b60020201600101541115610966578092505b60008084600b8110151561097657fe5b6002020160010154111561098957600191505b60008082600b8110151561099957fe5b60020201600101819055508080600101915050610911565b6001821415610a4d57600083600b811015156109c957fe5b600202016000016016607a546064811015156109e157fe5b019080546001816001161561010002031660029004610a01929190610ad8565b50607a60008154809291906001019190505550600083600b81101515610a2357fe5b60020201600001607b9080546001816001161561010002031660029004610a4b929190610ad8565b505b505050565b607a5481565b828054600181600116156101000203166002900490600052602060002090601f016020900481019282601f10610a9957805160ff1916838001178555610ac7565b82800160010185558215610ac7579182015b82811115610ac6578251825591602001919060010190610aab565b5b509050610ad49190610b5f565b5090565b828054600181600116156101000203166002900490600052602060002090601f016020900481019282601f10610b115780548555610b4e565b82800160010185558215610b4e57600052602060002091601f016020900482015b82811115610b4d578254825591600101919060010190610b32565b5b509050610b5b9190610b5f565b5090565b610b8191905b80821115610b7d576000816000905550600101610b65565b5090565b905600a165627a7a72305820454b968cc34d927ad1e89868f2437ca0644b49a7f626b25cfeb4cc7f81bd15fb0029",
  "source": "pragma solidity ^0.4.2;\n\ncontract Story {\n\n    \n    struct storyLine\n    {\n        string line;\n        uint voteCount;\n    }\n    \n    storyLine[11] public arrayOfLines; // keep track of status of lines in each round\n    string[100]public  finalStory;     // final lines in story\n    uint public lineCount = 0;         // final story line count\n    string public lineselected;\n    uint public start; \n    mapping( address => uint[]) votedInThisRound;\n    mapping(uint => string[]) suggestedThisRound;\n    mapping(uint => uint) numberOfSuggestions;\n    uint public Round;\n \n\n    // Constructor\n    constructor() public\n    {\n        // arrayOfLines[0].line = \"Line 0 \"; \n        // arrayOfLines[0].voteCount = 0;\n        // arrayOfLines[1].line = \"Line 1 \"; \n        // arrayOfLines[1].voteCount = 0; \n        // arrayOfLines[2].line = \"Line 2 \"; \n        // arrayOfLines[2].voteCount = 0;\n        // arrayOfLines[3].line = \"Line 3 \"; \n        // arrayOfLines[3].voteCount = 0;\n        // arrayOfLines[4].line = \"Line 4 \"; \n        // arrayOfLines[4].voteCount = 0;\n        start = now ;\n        Round = 0;\n    }\n\n    // modifier notVoted()\n    // {\n    //     require( votedInThisRound[msg.sender]<1 , \" Already proposed line \");\n    // }\n\n    function incrementRound()\n    public\n    {\n        Round++;\n    }\n\n    function lol()\n    public view\n    returns (uint)\n    {\n        return numberOfSuggestions[Round];\n    }\n\n    function casteVote(uint idx) \n    public\n    \n    {\n        // require(votedInThisRound[msg.sender] < 1,\" Already proposed line \");\n        // uint Round = (uint)((now - start)/roundTimer);\n        for (uint i = 0;i<votedInThisRound[msg.sender].length;i++) {\n            require(votedInThisRound[msg.sender][i] != Round, \"Already voted in this round\");\n        }\n        votedInThisRound[msg.sender].push(Round);\n        arrayOfLines[idx].voteCount += 1;\n    }\n\n    function addStoryLine() // add line to story and reset count to zero\n    public\n    {\n        // uint Round = (uint)((now - start)/roundTimer);\n        uint roundPropose = 0;\n        uint flag = 0;\n        for (uint i = 0;i<numberOfSuggestions[Round];i++)\n        {\n            if(arrayOfLines[i].voteCount > arrayOfLines[roundPropose].voteCount)\n            {\n                roundPropose = i;\n            }\n            if(arrayOfLines[roundPropose].voteCount > 0){\n                flag = 1;\n            }\n            arrayOfLines[i].voteCount = 0;\n        }\n        if(flag==1){\n            finalStory[lineCount] = arrayOfLines[roundPropose].line;\n            lineCount ++;\n            lineselected = arrayOfLines[roundPropose].line;   \n        }\n    }\n\n    function addNew(string _newExtension) \n    public\n    {\n        // uint Round = (uint)((now - start)/roundTimer);\n        suggestedThisRound[Round].push(_newExtension);\n        arrayOfLines[numberOfSuggestions[Round]].line = _newExtension;\n        arrayOfLines[numberOfSuggestions[Round]].voteCount = 0;\n        numberOfSuggestions[Round]++;\n    }\n\n}\n",
  "sourcePath": "/home/harshit/Documents/StoryBuildingDapp/StoryDapp/contracts/Story.sol",
  "compiler": {
    "name": "solc",
    "version": "0.4.24+commit.e67f0147.Emscripten.clang"
  },
  "schemaVersion": "2.0.1",
  "updatedAt": "2018-11-14T11:22:47.970Z"
}